:020000040000FA
:10000000C05D0020F50000006D260000FF0000002C
:1000100001010000030100000501000000000000D4
:1000200000000000000000000000000007010000C8
:1000300009010000000000000B010000F137000082
:100040000F0100000F0100000F0100000F01000070
:100050000F0100000F0100000F010000F53A000041
:100060000F0100000F0100000F0100000F01000050
:100070000F010000993900000F0100000F0100007E
:100080000F0100000F0100000F0100001916000011
:10009000810A00000F0100000F0100000F010000A5
:1000A0000F0100000F0100000F0100000F01000010
:1000B0000F0100000F0100000F0100000F01000000
:1000C0000F0100000F0100000F0100000F010000F0
:1000D0000F0100000F010000C1260000F126000002
:1000E000DFF80CD000F0FCFA00480047BD3E0000ED
:1000F000C05D00200648804706480047FEE7FEE74F
:10010000FEE7FEE7FEE7FEE7FEE7FEE7FEE7FEE7C7
:1001100075390000E10000002DE9F05F0546002080
:1001200092469B4688460646814640241BE0284668
:1001300041464746224600F01DFA53465A46C01A29
:10014000914110D311461846224600F016F82D1A98
:1001500067EB01084F4622460120002100F00DF810
:1001600017EB00094E41201EA4F10104DFDC4846D4
:1001700031462A464346BDE8F09F202A04DB203A58
:1001800000FA02F1002070479140C2F1200320FAEA
:1001900003F319439040704740EA01039B0703D0E3
:1001A00009E008C9121F08C0042AFAD203E011F8B6
:1001B000013B00F8013B521EF9D27047D2B201E078
:1001C00000F8012B491EFBD270470022F6E710B55C
:1001D00013460A4604461946FFF7F0FF204610BDB5
:1001E0002DE9FE4F804681EA0300C00F0C460090C7
:1001F00021F0004123F00045B8EB0200A94105D2EF
:100200004046214690461C460B46024623F00040DD
:10021000104347D0270DC7F30A00C3F30A510290D9
:10022000401A019040286BDAC3F3130040F4801B9E
:100230000098924620B10023D2EB030A63EB0B0B2C
:1002400001985946C0F140025046FFF796FF064616
:100250000D4650465946019A00F09CF910EB0800F3
:100260006141002487EA115284EAE7731A4340D0BF
:10027000009A62B3019A012A4FEA075215DC001B6B
:1002800061EB02014FF0004202EA0752CDE9004261
:10029000001C41F5801132462B4600F0D3F903B023
:1002A000BDE8F08F40462146F9E7001B61EB0201F3
:1002B000001C41F5801300185B412018A2F50017BF
:1002C00047EB030140EAD570B6196D4111E06D08A6
:1002D0004FEA360645EAC0754FEA0752001B61EB4C
:1002E0000201001C41F5801149084FEA3000001955
:1002F000514132462B4603B0BDE8F04F00F093B9B0
:100300000098012240000023D0EB020263EBE0736F
:10031000009821464FEAE074B8EB000061EB04015D
:10032000E9E783F000435BE781F0004158E72DE9FE
:10033000FE4F81EA030404F0004421F000410094E0
:100340004FF0000B23F0004350EA01045ED052EA64
:1003500003045BD0C3F30A54C1F30A552C44A4F23E
:10036000F3340194A0FB0254C1F3130141F4801152
:10037000C3F3130343F4801301FB024400FB034E59
:10038000840A970A44EA815447EA8357A4FB076822
:1003900002958D0A05FB07854FEA932C04FB0C544C
:1003A0002705029D4FEA065847EA1637B5EB0805C0
:1003B0006EEB070C870E920E47EA811742EA831212
:1003C000A7FB0201B6EB0B0164EB00042B0D43EA23
:1003D0000C335E1844EB1C50DA465146E7FB020131
:1003E000C5F313044FEA0B3343EA14534FEA0432C4
:1003F000019C43EA0603A4F10C040294009CCDE99D
:1004000000B400F01FF903B0BDE8F08F00200146F2
:10041000F9E72DE9F04D81EA030404F0004B21F0E7
:10042000004514464FF0000A23F0004150EA05024F
:1004300020D054EA01021DD0C5F30A570246C5F385
:100440001303C1F31300C1F30A5640F4801543F4BB
:100450008013A7EB0608101BD64608F2FD3873EB95
:10046000050002D308F1010801E092185B41B8F1E0
:10047000000F03DA00200146BDE8F08D00204FF4A4
:100480008011064684460EE0171B73EB050705D363
:10049000121B63EB050306434CEA010C49084FEAC3
:1004A000300092185B4150EA0107EDD152EA030097
:1004B00012D082EA040083EA0501084305D0101B2C
:1004C000AB4106D20122002306E000224FF0004398
:1004D00002E06FF0010253101AEB06004CEB0851DA
:1004E00010EB0A0041EB0B01BDE8F04D00F09BB8AA
:1004F0000EB540F2334102910021CDE900110A46C8
:100500000B4600F09FF803B000BDC1F30A5210B5CE
:10051000C1F3130140F2FF3341F480119A4201DA32
:10052000002010BD40F233439A42A2F2334203DC72
:10053000524200F01FF810BD904010BD01F0004382
:1005400030B421F0004150EA010206D00A0DA2F5B4
:100550006072C1F31301002A02DC30BC0020704736
:10056000440F44EAC104C100E01830BC00EBC250A3
:1005700000F022B8202A04DB203A21FA02F0002100
:10058000704721FA02F3D040C2F1200291400843A3
:1005900019467047202A06DBCB17203A41FA02F0B1
:1005A00043EAE07306E041FA02F3D040C2F12002D0
:1005B00091400843194670470029A8BF7047401C66
:1005C000490008BF20F00100704710B4B0FA80FC69
:1005D00000FA0CF050EA010404BF10BC704749B1A6
:1005E000CCF1200421FA04F411FA0CF118BF012116
:1005F00021430843A3EB0C01CB1D4FEA00614FEAF6
:10060000102042BF002010BC704700EBC3501044C4
:100610000029A4BF10BC7047401C490008BF20F04F
:10062000010010BC704710B5141E73F1000408DA05
:10063000401C41F1000192185B411A4301D120F0A6
:10064000010010BD2DE9F04D92469B4611B1B1FA63
:1006500081F202E0B0FA80F220329046FFF78DFD81
:1006600004460F4640EA0A0041EA0B0153465A4647
:10067000084313D0114653EA010019D0C8F14002D3
:100680005046FFF777FF05460E465046594642460C
:10069000FFF773FD084305D0012004E020463946EA
:1006A000BDE8F08D0020054346EAE0762C43374351
:1006B0000A986305E40AA0EB08000022FD0A44EA58
:1006C00047540A3002D500200146E9E70105101918
:1006D0006941DDE9084500196941BDE8F04DA2E72F
:1006E000064C074D06E0E06840F0010394E807007F
:1006F00098471034AC42F6D3FFF7F6FC20600000B8
:100700005060000010B52C48C06940F480202A4990
:10071000C8610846C06940F40020C861012000F0AB
:100720000BFF4FF0A040006840F400404FF0A041A4
:1007300008602148406A40F002001F4948620846AC
:10074000C06920F40010C8610846C06940F4800008
:10075000C8611A48006820F0FF00401C1749086073
:100760000120486000221621104601F03DF90022C8
:100770001821104601F038F9822216213C2001F0A0
:1007800033F901224FF20F010D4801F087F94022A1
:100790001821FE2001F028F940221821EF2001F055
:1007A00023F9E0221821FD2001F01EF9E022182192
:1007B000DF2001F019F910BD0000084000C0024020
:1007C0008000015030B501784A07002341781B436F
:1007D00042EA0171827841EA0261828841EA02328A
:1007E000C1880A43047A0021090641EA142143EA38
:1007F00004630A43447A0021090541EA143143EABB
:1008000004530A43847A0021090341EA1451250361
:10081000144643EA050244EA0103C47A00210902AE
:1008200041EA146142EA04221943047B00231B01BC
:1008300043EA147342EA04120B43847B00218900CB
:1008400041EA947142EA84021943C37B1A43034B81
:100850001B68C3F80021C3F8041130BD6C400020B0
:100860002DE9F04F85B06948C08868490978484348
:1008700000900098202805D0402804D0B0F5807F53
:1008800000D12DE0BDE0002425E00020604A02EB0D
:10089000C40210605060834618E0012000FA04F59D
:1008A0004FEAE57A5948027802FB0BF22846514696
:1008B000FFF763FC564A02EBC4030CCB1043194309
:1008C000534A02EBC40203C20BF1010B4F48C0882C
:1008D0005845E2D8641C4D480078A042D5D890E035
:1008E000002488E000214A4A02EBC40211605160F2
:1008F000474A083202EBC4021160516000224449A9
:10090000103101EBC4010A604A604149183101EB22
:10091000C4010A604A60934665E0012000FA04F6CB
:10092000F0173A490A7802FB0BF20490304604991A
:10093000FFF723FC364A02EBC4030CCB10431943E8
:10094000334A02EBC40203C2012000FA04F7F8178D
:100950002E490A7802FB0BF2039038460399FFF701
:100960000CFC2B4A083202EBC4030CCB1043194396
:10097000274A083202EBC40203C2012000FA04F83D
:100980004FEAE87021490A7802FB0BF202904046D8
:100990000299FFF7F2FB1E4A103202EBC4030CCBA4
:1009A000104319431A4A103202EBC40203C2012059
:1009B00000FA04F94FEAE97014490A7802FB0BF2D5
:1009C000019048460199FFF7D8FB114A183202EB13
:1009D000C4030CCB104319430D4A183202EBC40276
:1009E00003C20BF1010B0949C88800EBD071BBEBC6
:1009F000610F92D3641C05480078A0423FF672AFA5
:100A000000BF00BF05B0BDE8F08F000070420020BD
:100A1000C04300204FF0FF31184A1268C2F820127C
:100A2000C2F82412154A1268C2F82812C2F82C1211
:100A30000846124A1268C2F83002C2F834020F4A5D
:100A40001268C2F83802C2F83C020C4A1268C2F8B6
:100A50004012C2F84412094A1268C2F84812C2F899
:100A60004C12064A1268C2F85012C2F85412034AD5
:100A70001268C2F85812C2F85C1270476C4000202D
:100A800018480168D1F82003D1F824130223184034
:100A9000002148404940084308D002210020114A63
:100AA0001268C2F82013C2F8240305E00D4800685C
:100AB000D0F82013D0F824030B48006880B9094807
:100AC0000068D0F81014D0F8140401221143054A2C
:100AD0001268C2F81014C2F8140401200249086018
:100AE000704700006C4000203C400020142000288B
:100AF0000DDB00BF00BF00F01F0201219140420941
:100B0000920002F1E022C2F8001100BF00BF00BF56
:100B10006FF002008110034A1268C2F80003C2F8A5
:100B2000041370476C40002010B54FF0A0400068DF
:100B300040F400104FF0A04108600846806820F49F
:100B4000001088600846806840F400108860FFF755
:100B5000CDFF344800F078F833480068D0F800142E
:100B6000D0F804046FF0040211402F4A1268C2F852
:100B70000014C2F804042D4900202B4A12681163A6
:100B800050632B49284A126842F8981F5060102180
:100B9000254A1268C2F88011C2F88401FFF760FE8E
:100BA000244840782349097810FB01F0420022498B
:100BB0004FF0425000F036FA1E48C2891F492048C3
:100BC00000F024FA002027E081001E4A32F81110BC
:100BD0001B4B03EB4002A2F80012012101EB800144
:100BE000184A32F8111003EB4002A2F880120221D9
:100BF00001EB8001134A32F8111003EB4002A2F816
:100C00000013032101EB80010E4A32F8111003EBAF
:100C10004002A2F88013401C0649C9888142D3D8FB
:100C200010BD0000884300206C400020FFFF7203CD
:100C30001000003170420020604F0000905500000D
:100C4000000038309053000030B58E490978491EB5
:100C500001708C494978491E41708A49C988491EEA
:100C60004180082101710021417101218171002120
:100C7000C17101210172DC214181002101734173A5
:100C800001218173C17302210174002141748174B7
:100C90000122C27405220275042242750322827564
:100CA0000222C27501220276002242760722827653
:100CB0000622C2767349C9894A000262714A527893
:100CC000016A51436F4A12785143C1614FF040515C
:100CD0004162417C0024037CDD1844EB040223467E
:100CE000144641EA050243EA0401C47B0023DB0009
:100CF00043EA5473E5000C4642EA050144EA030264
:100D0000847B00231B0143EA147541EA04132A4340
:100D1000447B0021090241EA146543EA042142EAC6
:100D20000503047B0022120342EA145541EA04320F
:100D300043EA0501448900231B0443EA144342EAC1
:100D400004421943047A00239B0643EA941542EABD
:100D5000846341EA0502C4790021C90641EA5415B9
:100D600043EAC46142EA050384790022120742EA99
:100D7000141225071C4641EA050344EA020144799E
:100D80000022920742EA940243EA847311430279F3
:100D900014021A46214343881C030B46114643EABA
:100DA000040243781C060B46224301780C071946BF
:100DB0002243354B1B6819605A60C17E0024827E35
:100DC000230143EA1273150122461C4641EA05033A
:100DD00042EA0401447E0022120242EA1462250221
:100DE0000C4643EA05012243047E00231B0343EA29
:100DF00014532503144641EA050244EA0301C47D65
:100E000000231B0443EA144325040C4642EA05016F
:100E100044EA0302847D00231B0543EA14332505BD
:100E2000144641EA050244EA0301447D00231B06FF
:100E300043EA142342EA04620B43047D00210907BC
:100E400041EA141125071C4642EA050344EA01025F
:100E5000C17C1143827C41EA02110B4A1268936003
:100E6000D1600023D0E907121A430B4306490968F1
:100E70000A614B610022044B416A1B689961DA6187
:100E800030BD0000704200206C40002010B50446C8
:100E9000002025490870487088708C808020C880A8
:100EA0000320087200204872062088720820C87249
:100EB000032008730846C07A097B08441A4948731E
:100EC000002088730120C8730846FFF77BFC4FF4AD
:100ED00000714FF4C870154A1268C2F80811C2F8C0
:100EE0000C0113490420114A1268C2F81011C2F80B
:100EF00014010D48407BC0F1800001EB800000210F
:100F00000B4B0A4619431043084A1268C2F81811DD
:100F1000C2F81C0107490020044A1268C2F82011D7
:100F2000C2F8240110BD0000B04300206C40002036
:100F3000000004300000103010B5044600202F4996
:100F4000087048708870802088804020C880032006
:100F500008720020487206208872C8720220087346
:100F60000846C07A097B08442449487300208873E6
:100F70000220C8730846FFF725FC04214FF4C8700F
:100F80001F4A1268C2F80811C2F80C011D48C06956
:100F900000224FF0405303EB442113460A43184309
:100FA00017490968C1F81021C1F814014FF04051E8
:100FB00001EB44211148407BC0F14000114AD26945
:100FC00000FB021000224FF0405303EB4421134674
:100FD0000A4318430A490968C1F81821C1F81C01DD
:100FE00009484FF4486101FB04000021044A1268DB
:100FF000C2F82001C2F8241110BD0000B043002047
:101000006C400020884300200000103030B50346BB
:10101000002004E031F8104023F81040401C9042BA
:10102000F8D330BD30B50346002004E051F820402D
:1010300043F82040401C9042F8D330BD30B500BF8B
:10104000094A1368D3F82023D3F8243302400B4015
:1010500000256A406B401A43F2D0034A1268C2F876
:101060002003C2F8241330BD6C40002010B500BF2F
:1010700000BF00BF00BF00BFBFF34F8F00BF00BF66
:1010800000BF00BF00BF00BFBFF36F8F00BF00BF36
:1010900000BF3348006820F4003031490860002068
:1010A0003049086000BF00BF00BFBFF34F8F00BFD3
:1010B00000BF00BF00BF00BF00BFBFF36F8F00BF06
:1010C00000BF00BF00BF00BF0023254C7034236069
:1010D00000BF00BF00BF00BFBFF34F8F00BF00BF06
:1010E00000BF1F4B1B6823F480331D4C236000BFDF
:1010F00000BF00BFBFF34F8F00BF00BF00BF184B42
:101100006C331868C0F34E3100BFC0F3C90200BF92
:1011100043F6E07303EA41134FF0404404EA82745B
:101120002343104C2434236000BF00BF131EA2F1E0
:101130000102EDD10B1EA1F10101E6D100BF00BFFC
:1011400000BFBFF34F8F00BF00BF00BF00BF00BF95
:1011500000BFBFF36F8F00BF00BF00BF00BF10BD57
:1011600014ED00E050EF00E010B500BF00BF00BF7D
:1011700000BF00BFBFF34F8F00BF00BF00BF00BF65
:1011800000BF00BFBFF36F8F00BF00BF00BF0020D4
:101190002749086000BF00BF00BFBFF34F8F00BFEB
:1011A00000BF00BF00BF00BF00BFBFF36F8F00BF15
:1011B00000BF00BF00BF00BF00231E4C236000BF64
:1011C00000BF00BF00BFBFF34F8F00BF00BF00BF15
:1011D000231F1868C0F34E3100BFC0F3C90200BF1F
:1011E00043F6E07303EA41134FF0404404EA82748B
:1011F00023430F4C1034236000BF00BF131EA2F125
:101200000102EDD10B1EA1F10101E6D100BF00BF2B
:1012100000BFBFF34F8F00BF00BF00BF00BF00BFC4
:1012200000BFBFF36F8F00BF00BF00BF00BF10BD86
:1012300050EF00E084ED00E00348C06940F4800016
:101240000149C861704700000000084070B50446BD
:101250004FF0A040806820F400104FF0A04188605B
:101260000846806840F400108860FFF73FFCAA48F9
:101270004078401E6070A8480078401E2070A64844
:10128000C088401E6080082020710421217605213D
:1012900061760721A1760621E176C80660629E4844
:1012A000C089410021629C494978206A48439A4993
:1012B00009784843E061607C0023217C4D1843EBB2
:1012C0000301284343EA0102E37B0021C90041EA0C
:1012D000537140EAC3000A43A37B0021090141EA9C
:1012E000137140EA03101143637B0022120242EAA9
:1012F00013621D020B4640EA050143EA0200237B0C
:101300000022120342EA13521D03034641EA05007C
:10131000134362890021090441EA124140EA024074
:101320001943237A0022920642EA93129D060B4645
:1013300040EA05011A43E3790020C00640EA531051
:1013400041EAC3611043A3790022120742EA131550
:1013500041EA0372284363790021890741EA930136
:101360009D07034642EA0500194322791502024609
:1013700041EA050061880B03014610461943627873
:1013800013060246084611461843227840EA0270C6
:10139000624A126811605060E17E0023A07E1A014B
:1013A00042EA1072050108461946134640EA050252
:1013B0001943637E0020000240EA136042EA0322E0
:1013C0000143237E0020000340EA13501D030B4617
:1013D00042EA05011843E37D0022120442EA134267
:1013E00041EA03410243A37D0020000540EA133592
:1013F00041EA03502A43637D0021090641EA132193
:1014000040EA03600A43237D0021090741EA1311E2
:101410001D07134640EA05021943E07C0143A07C06
:1014200041EA00113D4800688260C1600022D4E9B1
:1014300007011143024339480068016142610021FC
:10144000364A606A12689061D16134480068D0F809
:101450000014D0F804046FF0040211402F4A1268FF
:10146000C2F80014C2F804042D4800212B4A126867
:10147000106351632B48294A126842F8980F516053
:1014800010210020254A1268C2F88011C2F8840198
:10149000FFF7E6F9204840781F49097810FB01F072
:1014A000420021494FF04250FFF7BCFD1A48C28963
:1014B0001E491F48FFF7AAFD002027E081001D4AB2
:1014C00032F811101A4B03EB4002A2F8001201216E
:1014D00001EB8001174A32F8111003EB4002A2F829
:1014E0008012022101EB8001124A32F8111003EB45
:1014F0004002A2F80013032101EB80010D4A32F8EB
:10150000111003EB4002A2F88013401C0249C98865
:101510008142D3D870BD0000704200206C40002092
:10152000FFFF720310000031604F00009055000073
:10153000000038309053000070B50446064800683B
:101540000649B0FBF1F6002503E0304600F008F84C
:101550006D1CA542F9D370BD04400020B0240300E7
:10156000002105E0002200E0521CA02AFCD3491C07
:101570008142F7D3704700000246082A02DB40F29E
:1015800001407047002940D0012904D1012090403A
:101590001F4B186039E0022905D1012090401C4BF7
:1015A0000833186031E0042905D101209040184B20
:1015B0001033186029E0082905D101209040144B10
:1015C0001833186021E0102905D101209040104BFC
:1015D0002033186019E01F2917D1012090400C4BCF
:1015E00020331860012090400A4BC3F840030120CB
:1015F0009040074B1833186001209040054BC3F80A
:10160000480301209040024B18600020B9E7000019
:10161000380306500000065070B5002546480068A3
:1016200046490968084344490860084640684449F7
:10163000D1F8F012084340494860084680684049A4
:10164000D1F8001308433C4988600846C0683C490B
:10165000D1F8F81208433849C8600846006938498B
:10166000D1F8E81208433449086108464069344912
:10167000D1F8601308433049486130480068304968
:10168000D1F8F01208432E49D1F8001308432C4931
:10169000D1F8F812084329492039096840EA0105C0
:1016A000002445E00120A040284000283ED02548E5
:1016B00050F8240020B1234951F82400804739E034
:1016C0001E4800680121A140084018B110212046A1
:1016D000FFF752FF1948183800680121A14008405F
:1016E00018B102212046FFF747FF14480838006868
:1016F0000121A140084018B108212046FFF73CFF16
:101700000E48103800680121A140084018B104219A
:101710002046FFF731FF0948203800680121A14029
:10172000084018B101212046FFF726FF601CC4B213
:10173000082CB7DB00BF70BD28410020080306500D
:1017400000000650404100204FF47A700E49C860F6
:101750000120086100200860022088610620C8611D
:10176000086203204862082088620620C862486335
:101770000120086300208863C8634864086445F654
:101780005A20886470470000E04300200146002290
:10179000B1F5802F07D3B1F5002F02D3B1F5042F97
:1017A00001D30C4870470C48006C012801D1084651
:1017B000F8E7B1F5802F04D20748406C01EB4032C6
:1017C00001E00448EEE7B2F5802F01D30148E9E7D4
:1017D0001046E7E701430800000007502DE9F047F5
:1017E0000446884691460025002600274546CA46FD
:1017F0002646C4F30C070720002817DB00F01F0261
:1018000001219140284A430942F8231000BF00BF3C
:1018100000BFBFF34F8F00BF00BF00BF00BF00BFBE
:1018200000BFBFF36F8F00BF00BF00BF00BFB4F5A4
:10183000802F08D3B4F5002F02D3B4F5042F02D3C0
:101840001A48BDE8F08719E052462946304600F0B4
:101850002FF810B11548801CF3E76FF30C067819C8
:10186000B0F5005F06D9C7F500502D1AC7F5005036
:10187000824400E00025002706F50056002DE3D144
:10188000072000280DDB00BF00BF00F01F02012170
:1018900091404209920002F1E022C2F8001100BF1B
:1018A00000BF00BF0020CCE780E100E0014308005A
:1018B0002DE9F04F04460E4617464FF0000BD84670
:1018C0000023002599469A462046FFF75FFF82468F
:1018D0003F48824501D1BDE8F08F4FEA543B4FEAC3
:1018E0004B3BC4F30C08002305E05BF823003949A7
:1018F00041F823005B1CB3F5006FF6D3B14608EB4B
:101900000600B0F5005F01D9C8F50059002305E0D5
:10191000F85C03EB08012F4A50545B1C4B45F7D38E
:101920002D482E4908622E4808622E4808624FEA68
:101930005A304FEA40304865A520C8644FF0FF3068
:10194000886500BF25488030006800F0010000284D
:10195000F8D0002528E000230BE0802000FB0530B4
:101960001C4951F820001D4A02EB8301C1F8000216
:101970005B1C802BF1D319480365D2201749C8643A
:101980004FEA5A314FEA413101EB4520134948658E
:101990004FF0FF30886500BF10488030006800F0CD
:1019A00001000028F8D06D1C102DD4D300200B4965
:1019B0000862002307E0F85CE15C884202D004483A
:1019C000801C88E75B1C4B45F5D3002083E70000B3
:1019D00001430800000000203412CBED0000075046
:1019E000785687A9BC9A436530B501F03F03FF24C0
:1019F0000C4DAC602C46E360A06000BF094C6469EC
:101A000004F00104002CF9D1064CE26000BF054C43
:101A1000646904F00304022CF9D1FF24014DAC6089
:101A200030BD000000C0024000BF00BF00BFBFF3D8
:101A30004F8F00BF00BF00BF00BF00BF00BFBFF39C
:101A40006F8F00BF00BF00BF1048006840F47000F7
:101A50000E49086000BF00BF00BFBFF34F8F00BF3B
:101A600000BF00BF00BF00BF00BFBFF36F8F00BF4C
:101A700000BF00BF0846006800F47000B0F5700FAA
:101A800001D1002070470120FCE7000088ED00E054
:101A900010B501F01BF9FFF747F810BD10B503466C
:101AA0002F48834211D1012A05D12E4800680843EE
:101AB0002C4C206052E02AB92A4800688843294CFF
:101AC00020604BE040F2015010BD25484030834279
:101AD00013D1012A06D12348006840EA0140214C75
:101AE00020603BE032B91F48006820EA01401D4CED
:101AF000206033E040F20150E6E71948803083422D
:101B000011D1012A05D11748006C0843154C2064F7
:101B100024E02AB91348006C8843124C20641DE06D
:101B200040F20150D0E70E48C030834213D1012A61
:101B300006D10C48006C40EA01400A4C20640DE0DC
:101B400032B90848006C20EA0140064C206405E0E8
:101B500040F20150B8E740F20150B5E70020B3E78A
:101B6000000001500000094010B5012202212B485D
:101B700000F09EF8012204212848403800F098F82F
:101B8000012211462548403800F092F80122110345
:101B90002248403800F08CF8012251021F4840389A
:101BA00000F086F8002201211C4800F081F8002096
:101BB0001B4908600120091D086019491039086097
:101BC000012280211548403800F072F800201449A5
:101BD00024390860012211021048403800F068F8EA
:101BE00000200F4920390860012291020B4840383B
:101BF00000F05EF800200A4918390860012220210F
:101C00000648403800F054F8002005492C39086097
:101C10000821024800F006F810BD00004000015005
:101C20004004015002462048824209D11F48C06842
:101C300008431E4BD860184680680843986030E01F
:101C40001948403082420BD11848C06840EA014030
:101C5000164BD8601846806840EA0140986020E042
:101C600011488030824209D11048C06C08430F4BA4
:101C7000D8641846806C0843986412E00A48C03063
:101C800082420BD10948C06C40EA0140074BD8643E
:101C90001846806C40EA0140986402E040F201502E
:101CA00070470020FCE700000000015000000940E0
:101CB000012A03D103680B43036002E003688B43EE
:101CC0000360704710B54FF40020C06B074988646B
:101CD0000846806C45F65A21884202D101F086F907
:101CE00003E0FFF731FD01F039FB10BDE0430020B8
:101CF00008604FF0A0425268C2F303420A711A4AC8
:101D0000926900224A71184A926900228A71164A21
:101D1000D269C2F30042CA714FF0A0425268120A5F
:101D20000A724FF0A0425268C2F303628A724FF007
:101D3000A04252684A720C4A526AC2F34002CA7206
:101D4000094A526A02F001020A73074A526AC2F350
:101D500080024A73044A126C0A61044A92688A82B9
:101D6000034AD268CA827047000008400040084019
:101D70000050084024480068244908604FF0A04003
:101D8000406800F47F4020B9084600682049086098
:101D900009E04FF0A0404068C0F3072040001B4915
:101DA0000968B1FBF0F01A4908604FF0A0404068A4
:101DB000C0B228B90846006840081649086008E023
:101DC0004FF0A04040680006C00D11490968B1FB02
:101DD000F0F0104908604FF0A040406800F07060DB
:101DE00028B90A48006840080B49086009E04FF02C
:101DF000A0404068C0F30360400004490968B1FB9B
:101E0000F0F00549086070471440002000400020B1
:101E1000044000200840002018400020174A1268A3
:101E20004FF47A73B2FBF3F202FB00F1B1F1807F61
:101E300008D2124A1268B2FBF3F242434FF0E02399
:101E40005A6104E06FF07F424FF0E0235A610022B4
:101E50004FF0E0239A6107221A6100BF4FF0E022A1
:101E6000126902F48032002AF8D04FF0E0221269A1
:101E700022F001024FF0E0231A6170470440002075
:101E80002DE9F04F87B007460C464FF0000AD346C5
:101E9000D046C14601A93846FFF72AFF0F2001F0BE
:101EA00006FC3748874207D90123002219463846E5
:101EB00001F018FC824606E0012300221146384654
:101EC00001F010FC82462F48406A40F002002D4984
:101ED00048620846406A40F004004862032100203E
:101EE00001F07AFC4FF0E020006920F001004FF093
:101EF000E02108616FF07F40486100208861A0B256
:101F000001F050FF05204FF0E021086107E04FF09D
:101F1000E020006900F4803008B108F101081A4897
:101F20004068C0F340000028F1D04FF0E020D0F826
:101F300018B00120144948601020AAFB00120023A9
:101F4000A1FB045C02FB04C201FB03266FF07F408F
:101F5000A0EB0B00401CC8EB086100EB010C6246D3
:101F600028463146FEF7D8F8814601A801F0E2FB89
:101F70000648C0F80090484607B0BDE8F08F000062
:101F800080F0FA02000008400040084010400020A5
:101F90002DE9F04786B081460C464FF0000A002735
:101FA000B84669464846FFF7A3FE2C48406A20F031
:101FB00004002A4948620846406A20F0020048624C
:101FC0000321002001F008FC4FF0E020006920F020
:101FD00001004FF0E02108616FF07F404861002070
:101FE0008861A0B201F0DEFE05204FF0E02108611B
:101FF00006E04FF0E020006900F4803000B17F1C63
:1020000017484068C0F340000028F2D04FF0E020AD
:10201000D0F818A0012012494860124801686FF0FA
:102020007F40A0EB0A00401CC7EB07621044A1FBF5
:1020300000510E464FEA041C6246002328463146F2
:10204000FEF76AF88046684601F074FB0648C0F85F
:102050000080404606B0BDE8F08700000000084060
:1020600000400840104000201440002010B500BF80
:1020700000BF00BF00BF00BFBFF34F8F00BF00BF56
:1020800000BF00BF00BF00BFBFF36F8F00BF00BF26
:1020900000BFA648006820F40030A4490860002072
:1020A000A349086000BF00BF00BFBFF34F8F00BF50
:1020B00000BF00BF00BF00BF00BFBFF36F8F00BFF6
:1020C00000BF00BF00BF00BF0023984C70342360E6
:1020D00000BF00BF00BF00BFBFF34F8F00BF00BFF6
:1020E00000BF924B1B6823F48033904C236000BFE9
:1020F00000BF00BFBFF34F8F00BF00BF00BF8B4BBF
:102100006C331868C0F34E3100BFC0F3C90200BF82
:1021100043F6E07303EA41134FF0404404EA82744B
:102120002343834C2434236000BF00BF131EA2F15D
:102130000102EDD10B1EA1F10101E6D100BF00BFEC
:1021400000BFBFF34F8F00BF00BF00BF00BF00BF85
:1021500000BFBFF36F8F00BF00BF00BF00BF00BF55
:1021600000BF00BF00BF00BFBFF35F8F00BF00BF55
:1021700000BF6E481030006820F480306B49103189
:1021800008606A488030006820F0010067498031AB
:10219000086000BF67486549883108606648091DC6
:1021A00008606648091F08606348091D08606448A4
:1021B000091F08606348091D08606348091F08601B
:1021C0005D48801F091D0860042040F00101574A46
:1021D0008032116055491031096841F48031534A09
:1021E0001032116000BF00BF00BF00BFBFF34F8FB0
:1021F00000BF00BF00BF00BF00BF00BFBFF36F8FB5
:1022000000BF00BF00BF00BF00BF484B1B6803F406
:10221000803303B148E00023444C7034236000BF96
:1022200000BF00BFBFF34F8F00BF00BF00BF231F21
:102230001868C0F34E3100BFC0F3C90200BF43F6B7
:10224000E07303EA41134FF0404404EA82742343ED
:10225000374C1034236000BF00BF131EA2F10102EF
:10226000EDD10B1EA1F10101E6D100BF00BF00BFFF
:10227000BFF34F8F00BF00BF00BF2C4B1B6843F460
:1022800080332A4C236000BF00BF00BFBFF34F8FD5
:1022900000BF00BF00BF00BF00BF00BFBFF36F8F14
:1022A00000BF00BF00BF00BF00BF2048006800F4AF
:1022B000003000B139E000BF00BF00BFBFF34F8F57
:1022C00000BF00BF00BF00BF00BF00BFBFF36F8FE4
:1022D00000BF00BF00BF00201549086000BF00BF5D
:1022E00000BFBFF34F8F00BF00BF00BF00BF00BFE4
:1022F00000BFBFF36F8F00BF00BF00BF0B48006877
:1023000040F400300949086000BF00BF00BFBFF3C0
:102310004F8F00BF00BF00BF00BF00BF00BFBFF3B3
:102320006F8F00BF00BF00BF00BF10BD14ED00E005
:1023300050EF00E01300C0313100100314000050D2
:102340001500006327000803160000302DE9FF4F39
:1023500091B00C4690469A464FF0000B0020039037
:102360000120029008200190002676E100200590CF
:1023700006EB460004EB8000B0F8029006EB460046
:1023800004EB8000878806EB460004EB8000806841
:10239000109006EB460034F820000F90B9F1800F42
:1023A00071D800BF01200590242106A8FDF70DFF7C
:1023B00010980A90002E18DD701E00EB400004EB10
:1023C00080004188A9F1010081420ED1701E00EB0E
:1023D000400004EB80008088B84206D1701E00EBFC
:1023E000400004EB800080680790A8F10100B04233
:1023F00018D9701C00EB400004EB8000418809F103
:10240000010081420ED1701C00EB400004EB800003
:102410008088B84206D1701C00EB400004EB8000BD
:1024200080680D90701E002801D5404400E0701EA9
:1024300005460020049064E0B81EAAF1010108409E
:1024400005EB450104EB81018988884200D15BE0FE
:1024500005EB450004EB8000418809F10100814251
:1024600012D1781EAAF10101084005EB450104EBE9
:1024700081018988884207D105EB450004EB800083
:1024800080680C9033E0C3E005EB450004EB80006E
:102490004088484511D1781EAAF10101084005EB9A
:1024A000450104EB81018988884206D105EB45008E
:1024B00004EB80008068099019E005EB450004EB0F
:1024C00080004188A9F10100814210D1781EAAF153
:1024D0000101084005EB450104EB81018988884230
:1024E00005D105EB450004EB800080680690681E6E
:1024F000002801D5404400E0681E05460498401CB1
:1025000004900498404597D300BF701C404502D307
:10251000A0EB080000E0701C05460020049064E079
:1025200005EB450004EB80008288AAF10100B91C8C
:102530000840824200D15BE005EB450004EB8000DF
:102540004188A9F10100814211D105EB450004EB5E
:1025500080008288AAF10100791C0840824206D1DD
:1025600005EB450004EB80008068089032E005EB45
:10257000450004EB80004088484511D105EB45003B
:1025800004EB80008288AAF10100791C0840824295
:1025900006D105EB450004EB800080680B9019E044
:1025A00005EB450004EB8000418809F10100814200
:1025B00010D105EB450004EB80008288AAF10100F0
:1025C000791C0840824205D105EB450004EB8000F0
:1025D00080680E90681C404502D3A0EB080000E024
:1025E000681C05460498401C04900498404597D305
:1025F00000BF039D09E006A850F825000A9988420B
:1026000001D9002005900298054401988542F2D92D
:10261000059801281CD10BEB4B02119800EB8200AE
:10262000A0F802900BEB4B02119800EB8200878020
:102630000BEB4B02DDE9100101EB820188600F9882
:1026400081B20BEB4B02119820F822100BF1010B19
:10265000BBF5C87F00D303E0761C4645FFF486AE89
:1026600000BF584615B0BDE8F08F000010488068E4
:102670001049096808430F490860084600680C497A
:102680008860084640690C49096808430A4908609F
:1026900008460068064948610846006A0749096813
:1026A0000843064908600846006801490862704707
:1026B000003008401C400020204000202440002022
:1026C0000848C06808490860084600680549C860AD
:1026D0000548006800F0010010B1012003490870AE
:1026E000704700000000085048400020444000208F
:1026F0000848C06808490860084600680549C8607D
:102700000548006800F00200022802D101200349B8
:1027100008707047000009504840002045400020E4
:1027200024480068244908604FF0A040406800F445
:102730007F4020B9084600682049086009E04FF052
:10274000A0404068C0F3072040001B490968B1FB66
:10275000F0F01A4908604FF0A0404068C0B228B9B4
:102760000846006840081649086008E04FF0A0409D
:1027700040680006C00D11490968B1FBF0F010492E
:1027800008604FF0A040406800F0706028B90A4827
:10279000006840080B49086009E04FF0A04040681D
:1027A000C0F30360400004490968B1FBF0F005493B
:1027B000086070470C4000200040002004400020CA
:1027C000084000201840002010B54C210348FDF7B8
:1027D000FCFC00F0CBFCFFF775FA10BDE0430020D5
:1027E00030B504460B4600211CB1102B01DA092A32
:1027F00002D340F2011030BD494884421FD1082B5A
:102800000CDA484881699D000F20A84081439D0053
:1028100002FA05F00143434881617FE04148C16904
:10282000A3F1080085000F20A8408143A3F1080010
:10283000850002FA05F001433A48C1616EE038486C
:10284000403084421FD1082B0CDA3648016A9D00C3
:102850000F20A84081439D0002FA05F00143314852
:1028600001625BE02F48416AA3F1080085000F2058
:10287000A8408143A3F10800850002FA05F0014356
:10288000284841624AE02648803084421FD1082B04
:102890000CDA2448816D9D000F20A84081439D00E3
:1028A00002FA05F001431F48816537E01D48C16DFC
:1028B000A3F1080085000F20A8408143A3F1080080
:1028C000850002FA05F001431648C16526E0144868
:1028D000C03084421FD1082B0CDA1248016E9D00D3
:1028E0000F20A84081439D0002FA05F001430D48E6
:1028F000016613E00B48416EA3F1080085000F202C
:10290000A8408143A3F10800850002FA05F00143C5
:102910000448416602E040F201106CE700206AE7DB
:10292000000001500000094030B52DED048B81B04E
:10293000044617A000680090572C04DCA4F1550051
:102940001DF8005002E0A4F15400C5B22846FDF77E
:10295000CFFD41EC180B9FED0F0B53EC102B51ECFE
:10296000180BFDF756FD41EC180B9FED0C0B53ECCB
:10297000102B51EC180BFDF733FC41EC190BFDF754
:10298000C4FDC5B2284601B0BDEC048B30BD0000CB
:1029900003010200B81E85EB51B8CE3F00000000D5
:1029A0000000E03F0146032901D155200AE001293A
:1029B00001D1562006E0022901D1572002E001F1A1
:1029C0005402D0B2704700002DE9F04389B00446AC
:1029D0004FF00009A678E578002005900690079052
:1029E0000890019002900390049020784FEA00280C
:1029F000607840441FFA80F8B01C322802DD09B02C
:102A0000BDE8F083A0198778B11C204601F048FA90
:102A100081464AF66020804564D14F4562D1AA20A4
:102A20008DF8140070208DF81500682D2BDC552DC5
:102A300029DB0020019002900390049001A9284610
:102A400001F0BEF90020284908702846FFF76CFF06
:102A5000264988702648057000788DF816002548AC
:102A600000788DF81700234800798DF818000521AB
:102A700005A801F015FA8DF81900062205A91E48CF
:102A800001F02EF8BBE7712D07D1012017494871DD
:102A90000020087100F094F8B1E7752D22D15A207A
:102AA0008DF814008DF8150014480088052803D10E
:102AB00000208DF8160003E0104800788DF816000D
:102AC0000E480089052803D100208DF8170003E087
:102AD0000A48007A8DF81700042205A9064800F07C
:102AE000FFFF8CE700BF8AE76540002070420020AE
:102AF00098400020804000202842002050420020C2
:102B00007FB500200090019002900390552420464C
:102B1000FFF70AFF1249887000251EE0AA208DF8F1
:102B2000000070208DF80100E0B28DF80200032053
:102B30008DF8030001208DF804000521684601F09E
:102B4000AFF98DF8050006226946064800F0C8FF77
:102B50000420FEF7F1FC681CC5B2052DDEDB7FBD4D
:102B600070420020284200207FB505460C46002018
:102B70000090019002900390AA208DF80000702030
:102B80008DF8010072208DF80200FF2C02D18DF823
:102B9000034004E02046FFF705FF8DF803008DF8A1
:102BA00004500521684601F07BF98DF805000622E6
:102BB0006946024800F094FF7FBD000028420020D3
:102BC0001FB500200090019002900390AA208DF87C
:102BD000000070208DF8010073208DF802000020A5
:102BE0008DF803008DF804000521684601F058F9BE
:102BF0008DF8050006226946014800F071FF1FBDEF
:102C00002842002010B502F09CF900220C21104649
:102C100000F076F900220D21104600F071F9002233
:102C20001421104600F06CF900221521104600F026
:102C300067F900221621104600F062F900221E21D9
:102C4000104600F05DF900221F21104600F058F9EF
:102C500000222021104600F053F9002221211046C5
:102C600000F04EF900222221104600F049F900221E
:102C70000621104600F044F900220721104600F01A
:102C80003FF900220821104600F03AF900220921FC
:102C9000104600F035F900220A21104600F030F904
:102CA00000220B21104600F02BF910BD10B50120B9
:102CB00005490860FFF7B2F80120034908310860B0
:102CC000FFF7ACF810BD00000004015010B502F091
:102CD00032F900220C21104600F012F900220D21D9
:102CE000104600F00DF900221421104600F008F9FA
:102CF00000221521104600F003F90022162110468B
:102D000000F0FEF800221E21104600F0F9F8002223
:102D10001F21104600F0F4F800222021104600F098
:102D2000EFF800222121104600F0EAF800222221CB
:102D3000104600F0E5F800220621104600F0E0F809
:102D400000220721104600F0DBF80022082110467F
:102D500000F0D6F800220921104600F0D1F8002238
:102D60000A21104600F0CCF800220B21104600F09A
:102D7000C7F810BD10B5FFF799FF10BD30B5054677
:102D80000B4603F03F0040F0400027490870FF2049
:102D9000487088700021284600F04CF8062023492E
:102DA000096848612048007820490968486000BFE8
:102DB0001E480068406900F002000028F8D01B4857
:102DC000006840681A490870174840781749096830
:102DD000486000BF15480068406900F00200002804
:102DE000F8D0124800684068114948700E48807851
:102DF0000E490968486000BF0C480068406900F04F
:102E000002000028F8D00948006840680849887026
:102E10000121284600F00EF80548807804494978D9
:102E200040EA0124204630BD84410020604100205A
:102E30008E41002010B1012807D102E0044A116040
:102E400004E0034A143A116000E000BF00BF70477D
:102E5000440401502DE9F05F05460E4614461F4616
:102E6000DDE90CABDDE90A89234607223146284615
:102E700000F096F83B4606223146284600F090F8CE
:102E8000434605223146284600F08AF84B46042284
:102E90003146284600F084F853460322314628463E
:102EA00000F07EF85B4602223146284600F078F8B2
:102EB0000122314628460E9B00F072F8002231466E
:102EC00028460F9B00F06CF8BDE8F09F13B5044650
:102ED0009DF8040000F03F0040F0800001900021C8
:102EE0002046FFF7A7FF042201A9044800F09DFE39
:102EF00001212046FFF79EFF1CBD0000604100201D
:102F000030B505460C46134604F03F0022490870D0
:102F1000181248708B7000212846FFF78BFF0420A1
:102F20001E49096848611C4800781C4909684860C6
:102F300000BF1A480068406900F001000028F8D07E
:102F40001548407815490968486000BF1348006873
:102F5000406900F001000028F8D00F4880780F4940
:102F60000968486000BF0D480068406900F0010032
:102F70000028F8D000BF09480068406900F004004C
:102F80000028F8D001212846FFF754FF0420034908
:102F90000968486130BD0000844100206041002084
:102FA0002DE9F04107460D4616461C463E200D49C8
:102FB000087005F07F004870E02000EA4610887035
:102FC000200AC8700C7100213846FFF733FF052234
:102FD0000449054800F029FE01213846FFF72AFF81
:102FE000BDE8F08184410020604100204FF40020C2
:102FF00000685D49C8600846C0684EF66021884296
:1030000003D94FF47A705849C8604FF400204068E3
:10301000554908610846006918B108460069032847
:1030200002D901205049086100204F4908604FF43F
:103030000020C068886108468069632801D90220A1
:1030400088614FF4002000694749C8610846C0699B
:10305000632801D90620C8614FF400204069424925
:1030600008620846006A18B10846006A632802D957
:1030700006203D4908624FF4002080693A494862C1
:103080000846406A632801D9032048624FF40020B3
:10309000C069354988620846806A632801D90820DA
:1030A00088624FF40020006A2F49C8620846C06A4F
:1030B00018B10846C06A632802D906202A49C862A6
:1030C0004FF40020406A284948630846406B632853
:1030D00001D9062048634FF40020806A2249086322
:1030E0000846006B18B10846006B032802D901207E
:1030F0001D4908634FF40020C06A1B4988630846D5
:10310000806B552803D30846806B682802D90020BD
:10311000154988634FF40020006B1349C8630846C3
:10312000C06B18B10846C06B682802D900200E4950
:10313000C8634FF40020406B0B4908640846006CDC
:10314000022801D9002008644FF40020806B064952
:10315000C8630846C06B18B10846C06B682802D91E
:1031600000200149C8637047E043002010B52DEDF1
:103170000A8B9FED1E0AB0EE408A9FED1D0AF0EE0D
:10318000408AB0EE000A28EE000A20EE280ADFEDA1
:10319000190A80EE801A184880ED011A1749C8886C
:1031A000FDF7A6F941EC1C0B9FED150B53EC102B12
:1031B000FDF7BDF841EC1B0B9FED130B53EC102BEF
:1031C000FDF7B5F841EC1A0B53EC1A2B9FED100BE1
:1031D00051EC100BFDF71DF941EC190BFDF7AEF9A1
:1031E00005498860BDEC0A8B10BD0000CDCCCC41F8
:1031F00025865E4C180D8F4DE04300207042002064
:103200000000008A878B3C420FD6FF39CC97073FDE
:1032100000000000A3E1B14110B54FF0A0400068EC
:1032200040F080004FF0A04108601F4880684FF6D2
:10323000FF7108431C4988604FF400511B48FEF79A
:10324000F1FC4FF480411948FEF7ECFC4FF40041CB
:103250001648FEF7E7FC01220D211448FFF7C0FADB
:1032600001220E211148FFF7BBFA01220F210F485E
:10327000FFF7B6FA0E480F4908600F4809688860E2
:1032800000200C49486000210A4881600121C1608A
:1032900000210161012141610420064908620846BC
:1032A00000F07EFC10BD000000000940000001504D
:1032B00000C0004060410020A51A005A10B50F4818
:1032C000406A20F002000D4948620846406A20F03A
:1032D0000400486201220021082000F0F3F90121D6
:1032E000002000F079FA64210548FEF7C9FD642149
:1032F0000348FEF74DFEFEF73DFD10BD00000840FF
:10330000005A620210B5082000F0D1F91148406A55
:1033100020F002000F4948620023082219460E4897
:1033200000F0E0F90B48406A40F0020009494862A9
:103330000846406A40F0040048620A20FEF7FCF8A4
:103340000121002000F048FAFFF7EAF90A20FEF711
:10335000F3F810BD00000840005A62021FB50020BB
:1033600000900190029003900124C949C868694601
:1033700000F026FD6A4604214804FEF72FFA28B91A
:103380000CB1012000E00020044605E0002008B157
:10339000012000E000200446BD490869694600F0AC
:1033A0000FFD6A4604214FF00810FEF717FA28B9FE
:1033B0000CB1012000E00020044605E0002008B127
:1033C000012000E000200446B1490868694600F089
:1033D000F7FC6A4604214FF00810FEF7FFF928B900
:1033E0000CB1012000E00020044605E0002008B1F7
:1033F000012000E000200446A5498869694600F0E4
:10340000DFFC6A460421A348FEF7E8F928B90CB1AD
:10341000012000E00020044605E0002008B1012062
:1034200000E0002004469A49C869694600F0C8FCDB
:103430006A4604219748001DFEF7D0F928B90CB15F
:10344000012000E00020044605E0002008B1012032
:1034500000E0002004468E49086A694600F0B0FC8E
:103460006A4604218B480830FEF7B8F928B90CB138
:10347000012000E00020044605E0002008B1012002
:1034800000E0002004468249486A694600F098FC42
:103490006A4604217F480C30FEF7A0F928B90CB128
:1034A000012000E00020044605E0002008B10120D2
:1034B00000E0002004467649886A694600F080FCF6
:1034C0006A46042173481030FEF788F928B90CB118
:1034D000012000E00020044605E0002008B10120A2
:1034E00000E0002004466A49C86A694600F068FCAA
:1034F0006A46042167481430FEF770F928B90CB108
:10350000012000E00020044605E0002008B1012071
:1035100000E0002004465E49486B694600F050FC1C
:103520006A4604215B481830FEF758F928B90CB1F7
:10353000012000E00020044605E0002008B1012041
:1035400000E0002004465249086B694600F038FC50
:103550006A4604214F481C30FEF740F928B90CB1E7
:10356000012000E00020044605E0002008B1012011
:1035700000E0002004464649086B694600F020FC44
:103580006A46042143481C30FEF728F928B90CB1DB
:10359000012000E00020044605E0002008B10120E1
:1035A00000E0002004463A49886B694600F008FCB8
:1035B0006A46042137482030FEF710F928B90CB1CB
:1035C000012000E00020044605E0002008B10120B1
:1035D00000E0002004462E49C86B694600F0F0FB6D
:1035E0006A4604212B482430FEF7F8F828B90CB1BC
:1035F000012000E00020044605E0002008B1012081
:1036000000E0002004462249086C694600F0D8FB1F
:103610006A4604211F482830FEF7E0F828B90CB1AB
:10362000012000E00020044605E0002008B1012050
:1036300000E0002004461649486C694600F0C0FBD3
:103640006A46042113482C30FEF7C8F828B90CB19B
:10365000012000E00020044605E0002008B1012020
:1036600000E00020044684B10949886C694600F0F6
:10367000A7FB6A46042107483030FEF7AFF810B9BF
:10368000012004B010BD0020FBE70020F9E7000096
:10369000E04300200C0008004FF0A041496821F0F1
:1036A000706141EA00614FF0A042516070474FF0F5
:1036B000A041496821F4702141EA00414FF0A04245
:1036C0005160704710B5064B9B6923F0786343EA5D
:1036D000006343EAC16343EAC253014CA36110BDD6
:1036E0000000084030B504461048806920F480602E
:1036F00020F00F0040EA812010430C4DA8612846BD
:10370000C06920F4803040EA0340E861481CB4FB03
:10371000F0F002F108056843022505EB4305B0FB14
:10372000F5F0034D28602846006830BD00000840D1
:103730000C40002030B504462079FFF7B8FFE3794C
:10374000A27961792068FFF7CDFFA07AFFF7A4FF87
:10375000E07A012806D11D48406A40F002001B496A
:10376000486205E01948406A20F0020017494862A3
:10377000207B012806D11548406A40F0010013491A
:10378000486205E01148406A20F001000F49486294
:10379000607B012806D10D48406A40F004000B49C7
:1037A000486205E00948406A20F004000749486281
:1037B000064920690864A08A05498860E08A0549AD
:1037C000C860617A207A00F007F830BD0000084038
:1037D00000400840005008404FF0A04252686FF38C
:1037E0000F0242EA00220A434FF0A0435A6070479A
:1037F00002480068401C01490860704738400020BA
:10380000102803D100211C4A118133E0202803D164
:103810000121194A11812DE0402803D10221164AC5
:10382000118127E0802803D10321134A118121E06F
:10383000B0F5807F03D104210F4A11811AE0B0F561
:10384000007F03D105210C4A118113E0B0F5806F90
:1038500003D10621084A11810CE0B0F5006F03D1B5
:103860000721054A118105E0B0F5805F02D10821EA
:10387000014A1181704700007042002010B53348A2
:10388000334908640846406A20F0010048624FF05E
:10389000A040006820F480104FF0A0410860084666
:1038A000006820F4002008602A4800684FF0FF30CC
:1038B00028490860084640684FF0FF3048600846D5
:1038C000006820F0806008600846406820F0806052
:1038D00048600846C0684FF0FF30C860084600697D
:1038E0004FF0FF300861084680694FF0FF30886173
:1038F0000F20FFF7DCFE01210020FFF76DFFFEF730
:1039000039FA0020FFF7C8FEFEF72EF9FFF784FC16
:10391000FFF7D4FCFFF7F6FCFCF7F4FE02200E499B
:103920004870012008704020C8808000C8810520B0
:103930004881032088810120088200204882087184
:103940004871C888FFF75CFF10BD00001413EBEC52
:1039500000000840003008407042002010B50448C4
:10396000408A10B9FFF7CCF800E000BF00BF10BDDF
:103970007042002000B5064806490864002008612E
:10398000FDF7F2FBFDF772FBFEF74EF800BD0000FD
:103990001413EBEC000008401948406840F00100A7
:1039A0001749486017480068401C164908601648C7
:1039B000D0E900305A1C40F100001349C1E9002051
:1039C00010480068B0F57A7F16D910480078401C7E
:1039D0000E490870087800EBD0714910A0EB410146
:1039E000012903D101200A49086002E000200849AA
:1039F0000860002003490860FF200149C860704743
:103A000000000240704000207840002074400020F8
:103A10001C04015010B500F06FFA00F0A7FD00F093
:103A2000F5FE00F0EBFB0446204600F0A9FA00B9D1
:103A300010BD01F0B9F800BFFAE7000010B54FF073
:103A4000A040006840F480704FF0A041086001225F
:103A500002211F48FEF7C4FE012203211C48FEF785
:103A6000BFFE1C481C49086001211B4881610021E0
:103A70000161012141614FF4E130174948600021A3
:103A80001548816000F0FEF8072000280DDB00BF1C
:103A900000BF00F01F02012191404209920002F193
:103AA000E022C2F8001100BF00BF00BF1F200A497A
:103AB0000968486108480068C06820F002000649AB
:103AC0000968C86048210548FCF77FFB10BD00006D
:103AD0004000015000000140284200209841002091
:103AE00070B504460D46164632462946204600F07B
:103AF00013F970BD00202149486900F00201002936
:103B000035D001211E4A82F83C10002111641D4964
:103B100009684968CAB21A494B680A31CA540A3955
:103B2000897AAA291AD116494968491C144A516050
:103B300011464A68097BC91C8A4218D30021104AE1
:103B400082F83C1011645160012111721146C97A4A
:103B500060290CD101210C4A117008E00021084AAB
:103B60005160116409490968491C084A116000F054
:103B7000100111B11021014A51617047000001404C
:103B8000984100202842002034400020304000208E
:103B9000FF21026891617047FF21026851617047FF
:103BA00000B5034613B940F2012000BD1846FFF7E7
:103BB000EFFF1846FFF7F0FF00201968C861196889
:103BC000086218894104586941EA0011186941EAFC
:103BD0008011988941EA0040998840EA814019683B
:103BE00008621868006A40F00300196808625868A3
:103BF000012812D19869012805D11868006A40F49B
:103C00000020196808621868006A998B4FF0F872F2
:103C100002EA01510843196808621968186A486283
:103C200000201968C86200BFBFE730B503460D46E3
:103C3000144613B10DB1002C02DC40F2012030BD5E
:103C40001846FFF7A5FF1846FFF7A6FF0BE02878F8
:103C50001968486000BF1868406900F0010000283A
:103C6000F9D06D1C641E002CF1DC00BF186840699F
:103C700000F004000028F9D00420196848610020F1
:103C8000DDE70000F0B503460024002600270025EC
:103C900013B940F20120F0BD1846FFF779FF18462E
:103CA000FFF77AFF98690101586941EA8011986825
:103CB00041EA8024186928B118694102D86841EAAC
:103CC0000020044344F0030401201968C861186807
:103CD00004621048006800015968B0FBF1F52E0934
:103CE00005F00100C5F3420147180E2000EA470025
:103CF000196888621868806A20F001001968886273
:103D00000EB1701E00E0304680B219684862002093
:103D1000C1E700000840002030B503460D461446B8
:103D200013B10DB1002C02DC40F2012030BD184669
:103D3000FFF72EFF1846FFF72FFF0BE028781968D2
:103D4000486000BF1868406900F001000028F9D001
:103D50006D1C641E002CF1DC00BF1868406900F087
:103D600004000028F9D00420196848610020DDE72C
:103D70000848006C0849884203D10848054908648E
:103D800007E00448006C0649884202D1002001493E
:103D900008647047000008401413EBEC3656C9A9BC
:103DA00063659C9A00B50246FFF7E2FF03200349D2
:103DB0004860084682600120486000BD004008401D
:103DC0000870020A4A70020C8A70020ECA707047AC
:103DD00010B51248006C401C104908640846007A6F
:103DE00080B10F48408A20B901F10A00FEF7ECFDCE
:103DF00000E000BF00BF002008494860087281F859
:103E00003C0009E00548006C022805D90020034960
:103E10004860087281F83C0010BD00009841002005
:103E200070420020002817DB00F01F0201219140A2
:103E30000A4A430942F8231000BF00BF00BFBFF386
:103E40004F8F00BF00BF00BF00BF00BF00BFBFF368
:103E50006F8F00BF00BF00BF7047000080E100E02F
:103E600000280DDB00BF00BF00F01F0201219140C0
:103E70004209920002F1E022C2F8001100BF00BF27
:103E8000704702E008C8121F08C1002AFAD1704723
:103E90007047002001E001C1121F002AFBD17047CA
:103EA00010B50246002002E012F8013B58400B1EFC
:103EB000A1F10104A1B2F7D110BD00000024FFF769
:103EC000DDFCFEF781FCFEF7D1F8FFF7B7FD00F04F
:103ED00013FE0446FFF742FD14B9FF2004490870A1
:103EE00004E0FFF775FF034800F014FEF9E7000057
:103EF000664000205042002010B50E2000211E4ACE
:103F00001268C2F82003C2F82413FDF795F91B4884
:103F1000FDF79CF900F07EFF01F007F816480168F4
:103F2000D1F80004D1F804146FF001031840124ACC
:103F30001268C2F80004C2F8041400BF0E480068FA
:103F4000D0F82013D0F8240308221140002041406B
:103F500040400143F2D0FEF755FE07480068D0F814
:103F60000014D0F8040401221143034A1268C2F875
:103F70000014C2F8040410BD6C40002088430020E7
:103F80002DE9F05F07464FF00008C1463846FCF7C0
:103F90007DFF8F480068D0F81014D0F81404202258
:103FA00011438B4A1268C2F81014C2F814048848EE
:103FB0000068D0F80014D0F804046FF02003194012
:103FC000834A1268C2F80014C2F804044FF4805007
:103FD00000217F4A1268C2F82003C2F824137C48EB
:103FE0000068D0F80814D0F80C0408231943784A64
:103FF0001268C2F80814C2F80C0458020021FDF738
:104000001DF873480168D1F82801D1F82C117149C5
:1040100008606F480068D0F80014D0F8040420232A
:1040200019436B4A1268C2F80014C2F80404002055
:104030006949096808806948694908606948002138
:10404000016041608160C1600024A7E064480068AD
:1040500000EBC40040883F2809DD6148006800EBA0
:10406000C4004088A0F140084FF0010907E05C4817
:10407000006800EBC400B0F802804FF000095A4815
:1040800000EBC9205649096831F83410574A515C91
:1040900000EB41105249096831F83410544A515C20
:1040A00000EBC100424601250026D0E900BA2846AF
:1040B0003146FCF762F80BEA00020AEA010300212C
:1040C0004A404B401A4368D04548006800EBC400A2
:1040D0004088401C81B240480068008800EB4002E4
:1040E0003D480068001D00EB820041803C480068AC
:1040F00030F834003E49095C491C374800680088A4
:1041000000EB400234480068001D20F822103448BB
:10411000006830F834003549085C401C2E490968B5
:10412000098801EB41022C490968091D01EB820154
:1041300088802B48006800EBC4004188284800684C
:1041400030F8340001EBC0102A49096851F82010FA
:1041500021480068008800EB40021F480068001DED
:1041600000EB820081601C4800680088401C1A49EE
:10417000096808801A48006830F834001C49085C57
:10418000184951F82000401C1549096831F83410CD
:10419000174A515C134A42F82100641C0D4800681C
:1041A0008442FFF453AF0C4800680088012805DB07
:1041B0000C48006810B10B48406830B930210E48F7
:1041C000FCF703F80020BDE8F09F0120FBE70000AA
:1041D0006C40002000410020E8400020000010302A
:1041E000E04000204045002050450020C044002011
:1041F00040440020D0400020505500202DE9F04FD1
:1042000087B0002600246DE02046FCF795FEC948E3
:104210000068D0F81014D0F8140420231943C54ABC
:104220001268C2F81014C2F81404C2480168D1F828
:104230000004D1F80414DB431840BE4A1268C2F8E7
:104240000004C2F804144FF480510020B94A1268E7
:10425000C2F82013C2F82403B6480168D1F8080454
:10426000D1F80C1408231843B24A1268C2F80804A3
:10427000C2F80C1458020021FCF7E0FEAD480168BA
:10428000D1F82801D1F82C11AB4941F824000021C4
:10429000AA4A02EBC40211605160002010E0002223
:1042A000A74B03EB401303EBC4031A605A600021D1
:1042B000A44A02EB401202EBC40211605160401CA0
:1042C0004028ECDB9B480068D0F80014D0F80404C8
:1042D00020231943974A1268C2F80014C2F8040454
:1042E000601CC4B2984840789749097810FB01F0E7
:1042F000A04289DC00209549096808800024BAE0C2
:10430000E00000EBC00101EB0010914901EB00104F
:10431000904908600025A6E0884800EBC400D0E979
:1043200000BA8C48006800EBC50042884FF00108D5
:104330004FF0000940464946FBF71FFF4BEA0002D9
:104340004AEA01037D4800EBC4000CC081480068C4
:1043500030F835003F2829DD7E48006800EBC500B5
:104360004188784800EB411000EBC400D0E900AB75
:104370007848006830F83520403A01210020CDE926
:10438000010108460199FBF7F8FE4AEA000A4BEAE8
:10439000010B7048006800EBC5004188694800EBDC
:1043A000411000EBC400C0E900AB26E0694800689A
:1043B00000EBC5004088624901EB401000EBC400EF
:1043C000D0E900BA6348006830F8352001210020A8
:1043D000CDE9030108460399FBF7CFFE4BEA000243
:1043E0004AEA01035B48006800EBC5004088544975
:1043F00001EB401000EBC4000CC05648006800EB15
:10440000C5004088401C82B250480068008800EB1C
:1044100040014E480068001D00EB810082804D483D
:10442000006830F83500401C82B2484800680088B7
:1044300000EB400145480068001D00EB8100428010
:10444000601C42490968098801EB41023F4909683B
:10445000091D21F822003D4800680088401C3B49A6
:10446000096808806D1C344850F82400A8423FF6C3
:1044700053AF601CC4B2344840783349097810FB0C
:1044800001F0A0423FF73CAF80213348FBF79DFE8F
:1044900080213248FBF799FE314800210180002439
:1044A0003BE0002733E0254800EBC4003A460121F9
:1044B000D0E9005A0020CDE9050108460599FBF72F
:1044C0005CFE05400AEA010A00214D408AEA010A21
:1044D00055EA0A051AD02048845520498F55214BAA
:1044E000DB697B4303F140531E4D2D6A04FB05310C
:1044F0001C4B1A6A1B6A1C4D06FB0350FBF74CFE53
:10450000761C1748005D401C154908557F1C0E4855
:10451000C088B842C7D8601CC4B20B4840780A496A
:10452000097810FB01F0A042BBDC304607B0BDE8C3
:10453000F08F00006C400020F84000203044002044
:1045400050450020504D002070420020E4400020E3
:1045500000001030E040002040440020C044002013
:104560000441002088430020000004302DE9FC5F56
:104570004FF040540225264604274FF000084FF024
:1045800000094FF0000B99480068D0F81014D0F8DB
:10459000140402231943954A1268C2F81014C2F891
:1045A00014049348C089401EC117090241EA1061F2
:1045B000002242EA00201143104311430123184313
:1045C00011438A4A1268106551650020874A1268B3
:1045D0009065D0650021854A12689166D16685494B
:1045E000824A1268116750678148C089401EC2170D
:1045F0000146030D43EA02307F2210436B0243EA77
:10460000013110231943002319431843774A1268D4
:10461000C2F80012C2F80402FCF7FCF90120764946
:10462000724A1268C2F80802C2F80C121520002162
:104630006E4A1268C2F81802C2F81C126B48016870
:10464000D1F80004D1F804146FF00E031840674A43
:104650001268C2F80004C2F8041400200190AEE011
:1046600004210020614A1268C2F82013C2F8240312
:10467000824698E0614850F82A0000224FF04071CD
:10468000124308435E4951F82A100A435749096802
:1046900041F8902F4860002000907EE05348006869
:1046A0000466456651480068C0F81062C0F814728C
:1046B0004E480068D0F81014D0F8140404221143B6
:1046C0004A4A1268C2F81014C2F814044D49002076
:1046D000464A1268116350631521444A1268C2F8B1
:1046E0001812C2F81C024FF40041404A1268C2F886
:1046F0002013C2F824033D480168D1F80804D1F81A
:104700000C1401221043394A1268C2F80804C2F896
:104710000C1408F10108B8F1100F0ED14FF0000889
:1047200009F10109324840783149097810FB01F05C
:10473000484502D1C1460BF1010B3348006A00FB2A
:1047400009F000F140503049C96908FB01004FEA07
:104750000B112D4AD26901FB02000021022340EA1D
:10476000010441EA03054FF0405101EB492026497D
:10477000C96908FB01004FEA0B122349C96902FB12
:1047800001000021042240EA010641EA0207500329
:10479000FCF754FC0098401C009000981028FFF48F
:1047A0007DAF0AF1010A124840781149097810FBDF
:1047B00001F050453FF65EAF0198401C0190019812
:1047C0000428FFF44DAF4FF00009C84607480068C1
:1047D000D0F80014D0F804040E231943034A1268D9
:1047E000C2F80014C2F80404BDE8FC9F6C4000202D
:1047F000704200202000003100003830804F00005F
:10480000504F0000FFFF7203884300202DE9F0475E
:104810000025002680480168D1F81004D1F814144E
:10482000022210437C4A1268C2F81004C2F8141421
:104830007A48C088401EC117090241EA106100226F
:1048400042EA00201143104311430223184311434D
:10485000714A12681065516500206F4A12689065B0
:10486000D06500216C4A12689166D1666C496A4A2B
:104870001268116750676948C088401EC117090354
:1048800041EA10510003674A1143644A1289002328
:104890001B0243EA126340EA022019431023184323
:1048A0000023184319435C4A1268C2F80002C2F898
:1048B0000412FCF7AFF801205B49574A1268C2F8AE
:1048C0000802C2F80C1215210020534A1268C2F8DF
:1048D0001812C2F81C0208214F4A1268C2F82013AD
:1048E000C2F824034C480068D0F80014D0F804043F
:1048F0006FF00A031940484A1268C2F80014C2F85F
:10490000040400275BE04FF0000852E04348407881
:1049100007FB008000F0FF09002444E04FF0405105
:1049200001EB492000EB840100224048C06911439B
:10493000024339480068016642664FF0405101EB7E
:10494000492000EB840100223848C069114302432A
:1049500031480068C0F81012C0F814221521002058
:104960002D4A1268C2F81812C2F81C024FF4004116
:10497000294A1268C2F82013C2F8240326480168A5
:10498000D1F80804D1F80C1401221043224A12680D
:10499000C2F80804C2F80C144FF400400021FCF7E0
:1049A0004DFB601CC4B2802CB8DB08F1010000F0A4
:1049B000FF081A4840784045A8DC781CC7B2174861
:1049C0000078B8429FDC14480068D0F80014D0F892
:1049D00004040A231943104A1268C2F80014C2F8EA
:1049E0000404002513E000260EE0701C4FF0405137
:1049F00001EB4020001FA0EB8500006801EB850162
:104A0000F20141F82200761C802EEED36D1C042D9D
:104A1000E9D3BDE8F08700006C4000207042002020
:104A2000100000311F0002000002383088430020CF
:104A300010B52DED048BFF242948008828490989E9
:104A4000884202DA2648047801E02548047A052CD9
:104A500000D1FF2423488078A04222DBFF20224996
:104A600008702046FBF744FD41EC190B9FED1F0B2E
:104A700053EC102BFBF75BFC41EC180BFBF745FDEF
:104A800084B201201B490860E1B217480078FEF7A4
:104A90006BF8012017490839086000201149087196
:104AA0001BE0FF2C08D0E1B20F480078FEF75CF85D
:104AB00000200C49087110E00A48407968B10948A3
:104AC0000079401C0749087108460079032804DB77
:104AD000FEF776F8002003490871BDEC048B10BD89
:104AE000504200207042002065400020B81E85EB37
:104AF00051B8CE3F2804015010B50024FEF73AF912
:104B0000FCF7C6FF14210020FEF738F904462046C2
:104B100010BD000010B50446FEF77CFFFF222021E7
:104B20002046FBF74BFB1E484088012806DA1C484C
:104B3000C089012802DA03201A4908601848408811
:104B4000002803DC1648C089002826DD15480068C7
:104B5000002804DD13480068401E1249086011480F
:104B60000068012819DA0E4841880088401E24F8A0
:104B700030100B4881680088401E04EBC000416083
:104B80000748C1898089401E24F8301004484169D3
:104B90008089401E04EBC0004160FFF749FF10BD53
:104BA000505500209C4000202DE9F04188B04FF086
:104BB000000800200490059006900790904B0FCBC2
:104BC0008DE80F000024002600BF00BF42F2845190
:104BD0008C480068FBF7F9FA002552E08A4850F843
:104BE0002500022832D2884850F8250068B306EB29
:104BF00046008449096801EB800704EB44018348BF
:104C00000068001D00EB81004088788004EB4401BF
:104C10007E480068001D00EB81008088B88004EBAE
:104C200044017A480068001D00EB81008068B8608C
:104C300004EB440175480068001D30F821003880FD
:104C4000714850F825000444761C19E004EB440137
:104C50006E480068001D00EB81086B4951F8252063
:104C600006EB4601674B1B6803EB8100402341467E
:104C7000FDF76CFB0644644850F82500044400BF6F
:104C80006D1C042DAAD330216148FBF79EFA002049
:104C90006FE000EB40015B4A126832F821100129F5
:104CA00013D100EB4001574A126802EB8101896879
:104CB000049A91425CD900EB4001524A126802EB1F
:104CC000810189680491009052E000EB40014D4A57
:104CD000126832F82110022913D100EB4001494A31
:104CE000126802EB81018968059A914240D900EB74
:104CF0004001444A126802EB8101896805910190E4
:104D000036E000EB40013F4A126832F821100329D7
:104D100013D100EB40013B4A126802EB8101896824
:104D2000069A914224D900EB4001364A126802EB00
:104D300081018968069102901AE000EB4001314A36
:104D4000126832F82110042912D100EB40012D4ADB
:104D5000126802EB81018968079A914208D900EB39
:104D60004001284A126802EB81018968079103908B
:104D7000401CB0428DD300203DE05DF82010FF299B
:104D800000D937E05DF8201001EB41011D4A12689F
:104D900032F8211000EB40021D4B23F822105DF881
:104DA000201001EB4101174A126802EB810189686A
:104DB00000EB400203EB820291605DF8201001EBF2
:104DC0004101104A126802EB8101498800EB400260
:104DD00003EB820251805DF8201001EB4101094A8A
:104DE000126802EB8101898800EB400203EB82022A
:104DF000918000BF401C0428BFD308B0BDE8F081FB
:104E000010600000EC40002040450020E8400020F9
:104E10005055002000B587B00720FFF703F800F0D9
:104E20007EF84FF44C520C210020FEF769F84FF445
:104E300070420D210020FEF763F840F613021421A2
:104E40000020FEF75DF840F67F0215210020FEF7F6
:104E500057F847F2707216210020FEF751F807222A
:104E60001E210020FEF74CF84FF4A6721F210020EF
:104E7000FEF746F84FF4485220210020FEF740F894
:104E8000702221210020FEF73BF84CF640422221FF
:104E90000020FEF735F84FF4A06206210020FEF74F
:104EA0002FF8322207210020FEF72AF8FF220821DE
:104EB0000020FEF725F8002209211046FEF720F811
:104EC0004FF440520A210020FEF71AF800220B216D
:104ED0001046FEF715F847F2E03204210020FEF7F5
:104EE0000FF8002205211046FEF70AF842F2920060
:104EF00044F2014100220292CDE9032105904FF4D2
:104F000006704FF478711523CDE900101146104654
:104F1000FDF7A0FF0720FEF7A3FF07B000BD10B507
:104F200003210020FDF7D2FF10BD10B50021084677
:104F3000FDF7CCFF10BD10B502210020FDF7C6FF24
:104F400010BD10B502210020FDF7C0FF10BD00000C
:104F500000100010001000100010001000100010D1
:104F60000000803F000000000000803F00000000C3
:104F70000000803F000000000000803F00000000B3
:104F80000000000000000000000000000000000021
:104F900009000300030003000400040005000500ED
:104FA000060007000700080009000A000B000C00BB
:104FB0000D000E000F001100120014001500170064
:104FC00019001B001D001F002100230026002900DE
:104FD0002B002E003100350038003B003F0043001D
:104FE00047004B005000550059005F006400690005
:104FF0006F0075007B0082008900900097009F0081
:10500000A700AF00B700C000C900D300DD00E70073
:10501000F200FC00080113011F012C0139014601B7
:105020005401620170017F018F019F01AF01C00136
:10503000D101E301F50108021B022F0244025802CC
:105040006E0284029A02B202C902E202FA02140358
:105050002E03480364037F039C03B903D703F503BE
:1050600014043404540475049604B804DB04FF04E7
:10507000230548056D059305BA05E1050A063206C4
:105080005C068606B106DC0608073507620790074E
:10509000BF07EE071E084F088008B208E408180989
:1050A0004B098009B409EA09200A570A8E0AC50A81
:1050B000FE0A360B700BA90BE40B1E0C5A0C950C58
:1050C000D10C0E0D4B0D880DC60D040E430E820E35
:1050D000C10E000F400F800FC00F01104110821051
:1050E000C310051146118811C9110B124D128E12F1
:1050F000D012121354139513D71319145A149B1466
:10510000DD141E155E159F15DF151F165F169E1602
:10511000DD161C175A179817D51712184F188B1829
:10512000C61801193B197519AE19E6191E1A551A38
:105130008B1AC11AF51A291B5D1B8F1BC01BF11B93
:10514000211C501C7D1CAA1CD61C011D2B1D541D8E
:105150007C1DA31DC91DED1D111E331E551E751E80
:10516000941EB21ECE1EE91E041F1D1F341F4B1FAE
:10517000601F741F861F981FA81FB61FC41FD01F53
:10518000DA1FE41FEC1FF31FF81FFC1FFF1FFF1F98
:10519000FF1FFF1FFC1FF81FF31FEC1FE41FDA1F88
:1051A000D01FC41FB61FA81F981F861F741F601F23
:1051B0004B1F341F1D1F041FE91ECE1EB21E941E5E
:1051C000751E551E331E111EED1DC91DA31D7C1D10
:1051D000541D2B1D011DD61CAA1C7D1C501C211CFE
:1051E000F11BC01B8F1B5D1B291BF51AC11A8B1AE3
:1051F000551A1E1AE619AE1975193B190119C61868
:105200008B184F181218D51798175A171C17DD1638
:105210009E165F161F16DF159F155E151E15DD14F1
:105220009B145A141914D713951354131213D01234
:105230008E124D120B12C911881146110511C3109F
:10524000821041100110C00F800F400F000FC10EDF
:10525000820E430E040EC60D880D4B0D0E0DD10CA3
:10526000950C5A0C1E0CE40BA90B700B360BFE0AA6
:10527000C50A8E0A570A200AEA09B40980094B09AF
:105280001809E408B20880084F081E08EE07BF0797
:105290009007620735070807DC06B10686065C063C
:1052A00032060A06E105BA0593056D054805230592
:1052B000FF04DB04B8049604750454043404140495
:1052C000F503D703B9039C037F03640348032E034C
:1052D0001403FA02E202C902B2029A0284026E02C6
:1052E000580244022F021B020802F501E301D1011A
:1052F000C001AF019F018F017F0170016201540164
:10530000460139012C011F0113010801FC00F200C4
:10531000E700DD00D300C900C000B700AF00A70060
:105320009F0097009000890082007B0075006F004D
:10533000690064005F005900550050004B004700B1
:1053400043003F003B003800350031002E002B00A9
:1053500029002600230021001F001D001B0019004A
:10536000170015001400120011000F000E000D00B0
:105370000C000B000A0009000800070007000600E7
:1053800005000500040004000300030003000900F9
:10539000010005000B0014001F002C003C004E0013
:1053A00063007A009300AF00CD00EE0010013501DC
:1053B0005D018601B201E001100242027702AD02F6
:1053C000E60220035C039B03DB031D046104A704C6
:1053D000EE0437058205CF051D066C06BD060F07D6
:1053E0006307B8070E086608BF0818097309CF09D4
:1053F0002C0A8A0AE80A480BA80B080C6A0CCB0C8A
:105400002E0D910DF40D570EBB0E1F0F830FE70FDE
:105410004B10AF1013117711DB113E12A1120313C1
:105420006613C71328148914E8144715A515031625
:105430005F16BA1615176E17C6171D187318C718FA
:105440001A196C19BC190B1A581AA31AED1A361B23
:105450007C1BC11B041C451C851CC21CFD1C371D6C
:105460006E1DA41DD71D081E371E641E8F1EB71E7D
:10547000DD1E011F231F421F5F1F7A1F921FA81FDF
:10548000BB1FCC1FDB1FE71FF11FF81FFD1FFF1FF6
:10549000FF1FFD1FF81FF11FE71FDB1FCC1FBB1FE6
:1054A000A81F921F7A1F5F1F421F231F011FDD1EAF
:1054B000B71E8F1E641E371E081ED71DA41D6E1D2D
:1054C000371DFD1CC21C851C451C041CC11B7C1BFC
:1054D000361BED1AA31A581A0B1ABC196C191A1993
:1054E000C71873181D18C6176E171517BA165F164A
:1054F0000316A5154715E81489142814C713661355
:105500000313A1123E12DB1177111311AF104B10D0
:10551000E70F830F1F0FBB0E570EF40D910D2E0DCD
:10552000CB0C6A0C080CA80B480BE80A8A0A2C0A58
:10553000CF0973091809BF0866080E08B807630782
:105540000F07BD066C061D06CF0582053705EE0464
:10555000A70461041D04DB039B035C032003E60234
:10556000AD02770242021002E001B20186015D0144
:1055700035011001EE00CD00AF0093007A0063000A
:105580004E003C002C001F0014000B000500010021
:10559000000000000200040007000B0010001600CD
:1055A0001D0025002E00380042004E005B006A00FE
:1055B000790089009B00AE00C200D700EE00070111
:1055C00020013B01580176019601B701DA01FF0184
:1055D00025024D027702A302D102000332036503C4
:1055E0009B03D2030B0447048404C4040605490545
:1055F0008F05D70521066D06BB060B075D07B107B2
:1056000007085F08B90815097309D209330A960A11
:10561000FB0A610BC80B310C9C0C070D740DE20DDD
:10562000520EC20E330FA40F17108A10FD10711105
:10563000E5115912CD124113B51329149C140F15FD
:105640008115F2156216D1163F17AB171618801880
:10565000E8184E19B219141A741AD21A2D1B861B87
:10566000DC1B2F1C801CCE1C181D601DA41DE51DFD
:10567000231E5D1E941EC71EF61E221F4A1F6E1F8C
:105680008E1FAA1FC31FD71FE71FF31FFB1FFF1F7C
:10569000FF1FFB1FF31FE71FD71FC31FAA1F8E1F6C
:1056A0006E1F4A1F221FF61EC71E941E5D1E231E5C
:1056B000E51DA41D601D181DCE1C801C2F1CDC1BAD
:1056C000861B2D1BD21A741A141AB2194E19E81817
:1056D00080181618AB173F17D1166216F2158115F0
:1056E0000F159C142914B5134113CD125912E5114D
:1056F0007111FD108A101710A40F330FC20E520E35
:10570000E20D740D070D9C0C310CC80B610BFB0AEC
:10571000960A330AD20973091509B9085F08070800
:10572000B1075D070B07BB066D062106D7058F0580
:1057300049050605C404840447040B04D2039B03F3
:10574000650332030003D102A30277024D02250252
:10575000FF01DA01B7019601760158013B012001F2
:105760000701EE00D700C200AE009B00890079005F
:105770006A005B004E00420038002E0025001D002C
:10578000160010000B0007000400020000000000DB
:105790000000000000000000000001000100010006
:1057A00002000200030003000400050005000600DB
:1057B0000700080009000A000B000C000E000F0093
:1057C00010001200130014001600180019001B002E
:1057D0001D001F00210023002500270029002B00A9
:1057E0002D0030003200350037003A003D003F0008
:1057F0004200450048004B004E0051005400580044
:105800005B005E006200650069006D00700074005E
:1058100078007C008000840088008D009100950055
:105820009A009F00A300A800AD00B200B700BC0022
:10583000C100C600CB00D100D600DC00E100E700CB
:10584000ED00F300F900FF0005010B011101180143
:105850001E0125012C0132013901400147014E0191
:1058600056015D0164016C0174017B0183018B01B0
:1058700093019B01A301AC01B401BD01C501CE019F
:10588000D701E001E901F201FB0105020E02180255
:1058900022022B0235023F02490254025E026902D3
:1058A00073027E02890294029F02AA02B502C0021C
:1058B000CC02D802E302EF02FB020703130320032A
:1058C0002C033903460352035F036C037A038703F7
:1058D0009403A203B003BD03CB03D903E803F6038B
:1058E00004041304220430043F044E045E046D04D7
:1058F0007C048C049C04AB04BB04CC04DC04EC04EA
:10590000FD040D051E052F054005510562057405B2
:1059100085059705A805BA05CC05DF05F105030641
:10592000160628063B064E066106740688069B0688
:10593000AF06C206D606EA06FE06120727073B0791
:105940005007640779078E07A307B807CE07E30758
:10595000F9070E0824083A08500866087D089308DD
:10596000AA08C008D708EE0805091C0933094A0926
:10597000620979099109A909C109D909F109090A35
:10598000210A3A0A520A6B0A840A9C0AB50ACE0A0C
:10599000E80A010B1A0B340B4D0B670B800B9A0BAB
:1059A000B40BCE0BE80B020C1D0C370C510C6C0C1D
:1059B000860CA10CBC0CD70CF20C0D0D280D430D60
:1059C0005E0D790D950DB00DCB0DE70D030E1E0E7E
:1059D0003A0E560E720E8E0EAA0EC60EE20EFE0E77
:1059E0001A0F360F530F6F0F8B0FA80FC40FE10F55
:1059F000FD0F1A103610531070108C10A910C6101D
:105A0000E31000111C113911561173119011AD11D1
:105A1000CA11E711041221123E125B12771294127E
:105A2000B112CE12EB120813251342135F137C132D
:105A30009913B613D313EF130C14291446146214DC
:105A40007F149C14B814D514F1140E152A1547159B
:105A5000631580159C15B815D415F0150C1628166D
:105A6000441660167C169816B316CF16EA1606175B
:105A700021173C17581773178E17A917C317DE176E
:105A8000F91713182E18481863187D189718B118AD
:105A9000CB18E418FE18181931194A1963197C1922
:105AA0009519AE19C719DF19F819101A281A401AD2
:105AB000581A701A871A9F1AB61ACD1AE41AFB1AC6
:105AC000121B281B3F1B551B6B1B811B971BAC1B01
:105AD000C21BD71BEC1B011C161C2A1C3F1C531C91
